{
  "_format": "hh-sol-artifact-1",
  "contractName": "POAP",
  "sourceName": "contracts/poap.sol",
  "abi": [
    {
      "inputs": [],
      "stateMutability": "nonpayable",
      "type": "constructor"
    },
    {
      "anonymous": false,
      "inputs": [
        {
          "indexed": true,
          "internalType": "address",
          "name": "owner",
          "type": "address"
        },
        {
          "indexed": true,
          "internalType": "address",
          "name": "approved",
          "type": "address"
        },
        {
          "indexed": true,
          "internalType": "uint256",
          "name": "tokenId",
          "type": "uint256"
        }
      ],
      "name": "Approval",
      "type": "event"
    },
    {
      "anonymous": false,
      "inputs": [
        {
          "indexed": true,
          "internalType": "address",
          "name": "owner",
          "type": "address"
        },
        {
          "indexed": true,
          "internalType": "address",
          "name": "operator",
          "type": "address"
        },
        {
          "indexed": false,
          "internalType": "bool",
          "name": "approved",
          "type": "bool"
        }
      ],
      "name": "ApprovalForAll",
      "type": "event"
    },
    {
      "anonymous": false,
      "inputs": [
        {
          "indexed": true,
          "internalType": "address",
          "name": "previousOwner",
          "type": "address"
        },
        {
          "indexed": true,
          "internalType": "address",
          "name": "newOwner",
          "type": "address"
        }
      ],
      "name": "OwnershipTransferred",
      "type": "event"
    },
    {
      "anonymous": false,
      "inputs": [
        {
          "indexed": true,
          "internalType": "address",
          "name": "from",
          "type": "address"
        },
        {
          "indexed": true,
          "internalType": "address",
          "name": "to",
          "type": "address"
        },
        {
          "indexed": true,
          "internalType": "uint256",
          "name": "tokenId",
          "type": "uint256"
        }
      ],
      "name": "Transfer",
      "type": "event"
    },
    {
      "inputs": [
        {
          "internalType": "address",
          "name": "to",
          "type": "address"
        },
        {
          "internalType": "uint256",
          "name": "tokenId",
          "type": "uint256"
        }
      ],
      "name": "approve",
      "outputs": [],
      "stateMutability": "nonpayable",
      "type": "function"
    },
    {
      "inputs": [
        {
          "internalType": "address",
          "name": "owner",
          "type": "address"
        }
      ],
      "name": "balanceOf",
      "outputs": [
        {
          "internalType": "uint256",
          "name": "",
          "type": "uint256"
        }
      ],
      "stateMutability": "view",
      "type": "function"
    },
    {
      "inputs": [
        {
          "internalType": "uint256",
          "name": "tokenId",
          "type": "uint256"
        }
      ],
      "name": "getApproved",
      "outputs": [
        {
          "internalType": "address",
          "name": "",
          "type": "address"
        }
      ],
      "stateMutability": "view",
      "type": "function"
    },
    {
      "inputs": [
        {
          "internalType": "address",
          "name": "owner",
          "type": "address"
        },
        {
          "internalType": "address",
          "name": "operator",
          "type": "address"
        }
      ],
      "name": "isApprovedForAll",
      "outputs": [
        {
          "internalType": "bool",
          "name": "",
          "type": "bool"
        }
      ],
      "stateMutability": "view",
      "type": "function"
    },
    {
      "inputs": [],
      "name": "mintStatus",
      "outputs": [
        {
          "internalType": "enum POAP.MintStatus",
          "name": "",
          "type": "uint8"
        }
      ],
      "stateMutability": "view",
      "type": "function"
    },
    {
      "inputs": [],
      "name": "name",
      "outputs": [
        {
          "internalType": "string",
          "name": "",
          "type": "string"
        }
      ],
      "stateMutability": "view",
      "type": "function"
    },
    {
      "inputs": [],
      "name": "owner",
      "outputs": [
        {
          "internalType": "address",
          "name": "",
          "type": "address"
        }
      ],
      "stateMutability": "view",
      "type": "function"
    },
    {
      "inputs": [
        {
          "internalType": "uint256",
          "name": "tokenId",
          "type": "uint256"
        }
      ],
      "name": "ownerOf",
      "outputs": [
        {
          "internalType": "address",
          "name": "",
          "type": "address"
        }
      ],
      "stateMutability": "view",
      "type": "function"
    },
    {
      "inputs": [],
      "name": "pauseMint",
      "outputs": [],
      "stateMutability": "nonpayable",
      "type": "function"
    },
    {
      "inputs": [],
      "name": "renounceOwnership",
      "outputs": [],
      "stateMutability": "nonpayable",
      "type": "function"
    },
    {
      "inputs": [
        {
          "internalType": "string",
          "name": "uri",
          "type": "string"
        }
      ],
      "name": "safeMint",
      "outputs": [],
      "stateMutability": "nonpayable",
      "type": "function"
    },
    {
      "inputs": [
        {
          "internalType": "address",
          "name": "from",
          "type": "address"
        },
        {
          "internalType": "address",
          "name": "to",
          "type": "address"
        },
        {
          "internalType": "uint256",
          "name": "tokenId",
          "type": "uint256"
        }
      ],
      "name": "safeTransferFrom",
      "outputs": [],
      "stateMutability": "nonpayable",
      "type": "function"
    },
    {
      "inputs": [
        {
          "internalType": "address",
          "name": "from",
          "type": "address"
        },
        {
          "internalType": "address",
          "name": "to",
          "type": "address"
        },
        {
          "internalType": "uint256",
          "name": "tokenId",
          "type": "uint256"
        },
        {
          "internalType": "bytes",
          "name": "_data",
          "type": "bytes"
        }
      ],
      "name": "safeTransferFrom",
      "outputs": [],
      "stateMutability": "nonpayable",
      "type": "function"
    },
    {
      "inputs": [
        {
          "internalType": "address",
          "name": "operator",
          "type": "address"
        },
        {
          "internalType": "bool",
          "name": "approved",
          "type": "bool"
        }
      ],
      "name": "setApprovalForAll",
      "outputs": [],
      "stateMutability": "nonpayable",
      "type": "function"
    },
    {
      "inputs": [
        {
          "internalType": "bytes4",
          "name": "interfaceId",
          "type": "bytes4"
        }
      ],
      "name": "supportsInterface",
      "outputs": [
        {
          "internalType": "bool",
          "name": "",
          "type": "bool"
        }
      ],
      "stateMutability": "view",
      "type": "function"
    },
    {
      "inputs": [],
      "name": "symbol",
      "outputs": [
        {
          "internalType": "string",
          "name": "",
          "type": "string"
        }
      ],
      "stateMutability": "view",
      "type": "function"
    },
    {
      "inputs": [
        {
          "internalType": "uint256",
          "name": "index",
          "type": "uint256"
        }
      ],
      "name": "tokenByIndex",
      "outputs": [
        {
          "internalType": "uint256",
          "name": "",
          "type": "uint256"
        }
      ],
      "stateMutability": "view",
      "type": "function"
    },
    {
      "inputs": [
        {
          "internalType": "address",
          "name": "owner",
          "type": "address"
        },
        {
          "internalType": "uint256",
          "name": "index",
          "type": "uint256"
        }
      ],
      "name": "tokenOfOwnerByIndex",
      "outputs": [
        {
          "internalType": "uint256",
          "name": "",
          "type": "uint256"
        }
      ],
      "stateMutability": "view",
      "type": "function"
    },
    {
      "inputs": [
        {
          "internalType": "uint256",
          "name": "poapId",
          "type": "uint256"
        }
      ],
      "name": "tokenURI",
      "outputs": [
        {
          "internalType": "string",
          "name": "",
          "type": "string"
        }
      ],
      "stateMutability": "view",
      "type": "function"
    },
    {
      "inputs": [],
      "name": "totalSupply",
      "outputs": [
        {
          "internalType": "uint256",
          "name": "",
          "type": "uint256"
        }
      ],
      "stateMutability": "view",
      "type": "function"
    },
    {
      "inputs": [
        {
          "internalType": "address",
          "name": "from",
          "type": "address"
        },
        {
          "internalType": "address",
          "name": "to",
          "type": "address"
        },
        {
          "internalType": "uint256",
          "name": "tokenId",
          "type": "uint256"
        }
      ],
      "name": "transferFrom",
      "outputs": [],
      "stateMutability": "nonpayable",
      "type": "function"
    },
    {
      "inputs": [
        {
          "internalType": "address",
          "name": "newOwner",
          "type": "address"
        }
      ],
      "name": "transferOwnership",
      "outputs": [],
      "stateMutability": "nonpayable",
      "type": "function"
    },
    {
      "inputs": [],
      "name": "unpauseMint",
      "outputs": [],
      "stateMutability": "nonpayable",
      "type": "function"
    }
  ],
  "bytecode": "0x60806040526001600d60006101000a81548160ff0219169083600181111562000051577f4e487b7100000000000000000000000000000000000000000000000000000000600052602160045260246000fd5b02179055503480156200006357600080fd5b506040518060400160405280600a81526020017f44464d4c4142504f4150000000000000000000000000000000000000000000008152506040518060400160405280600b81526020017f44464d4c616220504f41500000000000000000000000000000000000000000008152508160009080519060200190620000e8929190620001f8565b50806001908051906020019062000101929190620001f8565b50505062000124620001186200012a60201b60201c565b6200013260201b60201c565b6200030d565b600033905090565b6000600b60009054906101000a900473ffffffffffffffffffffffffffffffffffffffff16905081600b60006101000a81548173ffffffffffffffffffffffffffffffffffffffff021916908373ffffffffffffffffffffffffffffffffffffffff1602179055508173ffffffffffffffffffffffffffffffffffffffff168173ffffffffffffffffffffffffffffffffffffffff167f8be0079c531659141344cd1fd0a4f28419497f9722a3daafe3b4186f6b6457e060405160405180910390a35050565b8280546200020690620002a8565b90600052602060002090601f0160209004810192826200022a576000855562000276565b82601f106200024557805160ff191683800117855562000276565b8280016001018555821562000276579182015b828111156200027557825182559160200191906001019062000258565b5b50905062000285919062000289565b5090565b5b80821115620002a45760008160009055506001016200028a565b5090565b60006002820490506001821680620002c157607f821691505b60208210811415620002d857620002d7620002de565b5b50919050565b7f4e487b7100000000000000000000000000000000000000000000000000000000600052602260045260246000fd5b613bc0806200031d6000396000f3fe608060405234801561001057600080fd5b506004361061014d5760003560e01c8063695850fb116100c3578063a22cb4651161007c578063a22cb4651461038c578063b88d4fde146103a8578063c87b56dd146103c4578063cd85cdb5146103f4578063e985e9c5146103fe578063f2fde38b1461042e5761014d565b8063695850fb146102dc57806370a08231146102f8578063715018a6146103285780638da5cb5b1461033257806395d89b41146103505780639da3f8fd1461036e5761014d565b80631a8bd2da116101155780631a8bd2da1461020a57806323b872dd146102145780632f745c591461023057806342842e0e146102605780634f6ccce71461027c5780636352211e146102ac5761014d565b806301ffc9a71461015257806306fdde0314610182578063081812fc146101a0578063095ea7b3146101d057806318160ddd146101ec575b600080fd5b61016c6004803603810190610167919061290c565b61044a565b6040516101799190612e11565b60405180910390f35b61018a61045c565b6040516101979190612e47565b60405180910390f35b6101ba60048036038101906101b5919061299f565b6104ee565b6040516101c79190612daa565b60405180910390f35b6101ea60048036038101906101e591906128d0565b610573565b005b6101f461068b565b6040516102019190613109565b60405180910390f35b610212610698565b005b61022e600480360381019061022991906127ca565b610767565b005b61024a600480360381019061024591906128d0565b6107c7565b6040516102579190613109565b60405180910390f35b61027a600480360381019061027591906127ca565b61086c565b005b6102966004803603810190610291919061299f565b61088c565b6040516102a39190613109565b60405180910390f35b6102c660048036038101906102c1919061299f565b610923565b6040516102d39190612daa565b60405180910390f35b6102f660048036038101906102f1919061295e565b6109d5565b005b610312600480360381019061030d9190612765565b610ac6565b60405161031f9190613109565b60405180910390f35b610330610b7e565b005b61033a610c06565b6040516103479190612daa565b60405180910390f35b610358610c30565b6040516103659190612e47565b60405180910390f35b610376610cc2565b6040516103839190612e2c565b60405180910390f35b6103a660048036038101906103a19190612894565b610cd5565b005b6103c260048036038101906103bd9190612819565b610ceb565b005b6103de60048036038101906103d9919061299f565b610d4d565b6040516103eb9190612e47565b60405180910390f35b6103fc610d5f565b005b6104186004803603810190610413919061278e565b610e2e565b6040516104259190612e11565b60405180910390f35b61044860048036038101906104439190612765565b610ec2565b005b600061045582610fba565b9050919050565b60606000805461046b90613384565b80601f016020809104026020016040519081016040528092919081815260200182805461049790613384565b80156104e45780601f106104b9576101008083540402835291602001916104e4565b820191906000526020600020905b8154815290600101906020018083116104c757829003601f168201915b5050505050905090565b60006104f982611034565b610538576040517f08c379a000000000000000000000000000000000000000000000000000000000815260040161052f90613029565b60405180910390fd5b6004600083815260200190815260200160002060009054906101000a900473ffffffffffffffffffffffffffffffffffffffff169050919050565b600061057e82610923565b90508073ffffffffffffffffffffffffffffffffffffffff168373ffffffffffffffffffffffffffffffffffffffff1614156105ef576040517f08c379a00000000000000000000000000000000000000000000000000000000081526004016105e690613089565b60405180910390fd5b8073ffffffffffffffffffffffffffffffffffffffff1661060e6110a0565b73ffffffffffffffffffffffffffffffffffffffff16148061063d575061063c816106376110a0565b610e2e565b5b61067c576040517f08c379a000000000000000000000000000000000000000000000000000000000815260040161067390612f69565b60405180910390fd5b61068683836110a8565b505050565b6000600880549050905090565b6106a06110a0565b73ffffffffffffffffffffffffffffffffffffffff166106be610c06565b73ffffffffffffffffffffffffffffffffffffffff1614610714576040517f08c379a000000000000000000000000000000000000000000000000000000000815260040161070b90613049565b60405180910390fd5b6001600d60006101000a81548160ff02191690836001811115610760577f4e487b7100000000000000000000000000000000000000000000000000000000600052602160045260246000fd5b0217905550565b6107786107726110a0565b82611161565b6107b7576040517f08c379a00000000000000000000000000000000000000000000000000000000081526004016107ae906130c9565b60405180910390fd5b6107c283838361123f565b505050565b60006107d283610ac6565b8210610813576040517f08c379a000000000000000000000000000000000000000000000000000000000815260040161080a90612e69565b60405180910390fd5b600660008473ffffffffffffffffffffffffffffffffffffffff1673ffffffffffffffffffffffffffffffffffffffff168152602001908152602001600020600083815260200190815260200160002054905092915050565b61088783838360405180602001604052806000815250610ceb565b505050565b600061089661068b565b82106108d7576040517f08c379a00000000000000000000000000000000000000000000000000000000081526004016108ce906130e9565b60405180910390fd5b60088281548110610911577f4e487b7100000000000000000000000000000000000000000000000000000000600052603260045260246000fd5b90600052602060002001549050919050565b6000806002600084815260200190815260200160002060009054906101000a900473ffffffffffffffffffffffffffffffffffffffff169050600073ffffffffffffffffffffffffffffffffffffffff168173ffffffffffffffffffffffffffffffffffffffff1614156109cc576040517f08c379a00000000000000000000000000000000000000000000000000000000081526004016109c390612fa9565b60405180910390fd5b80915050919050565b600180811115610a0e577f4e487b7100000000000000000000000000000000000000000000000000000000600052602160045260246000fd5b600d60009054906101000a900460ff166001811115610a56577f4e487b7100000000000000000000000000000000000000000000000000000000600052602160045260246000fd5b14610a96576040517f08c379a0000000000000000000000000000000000000000000000000000000008152600401610a8d906130a9565b60405180910390fd5b6000610aa2600c6114a6565b9050610aae600c6114b4565b610ab833826114ca565b610ac281836114e8565b5050565b60008073ffffffffffffffffffffffffffffffffffffffff168273ffffffffffffffffffffffffffffffffffffffff161415610b37576040517f08c379a0000000000000000000000000000000000000000000000000000000008152600401610b2e90612f89565b60405180910390fd5b600360008373ffffffffffffffffffffffffffffffffffffffff1673ffffffffffffffffffffffffffffffffffffffff168152602001908152602001600020549050919050565b610b866110a0565b73ffffffffffffffffffffffffffffffffffffffff16610ba4610c06565b73ffffffffffffffffffffffffffffffffffffffff1614610bfa576040517f08c379a0000000000000000000000000000000000000000000000000000000008152600401610bf190613049565b60405180910390fd5b610c04600061155c565b565b6000600b60009054906101000a900473ffffffffffffffffffffffffffffffffffffffff16905090565b606060018054610c3f90613384565b80601f0160208091040260200160405190810160405280929190818152602001828054610c6b90613384565b8015610cb85780601f10610c8d57610100808354040283529160200191610cb8565b820191906000526020600020905b815481529060010190602001808311610c9b57829003601f168201915b5050505050905090565b600d60009054906101000a900460ff1681565b610ce7610ce06110a0565b8383611622565b5050565b610cfc610cf66110a0565b83611161565b610d3b576040517f08c379a0000000000000000000000000000000000000000000000000000000008152600401610d32906130c9565b60405180910390fd5b610d478484848461178f565b50505050565b6060610d58826117eb565b9050919050565b610d676110a0565b73ffffffffffffffffffffffffffffffffffffffff16610d85610c06565b73ffffffffffffffffffffffffffffffffffffffff1614610ddb576040517f08c379a0000000000000000000000000000000000000000000000000000000008152600401610dd290613049565b60405180910390fd5b6000600d60006101000a81548160ff02191690836001811115610e27577f4e487b7100000000000000000000000000000000000000000000000000000000600052602160045260246000fd5b0217905550565b6000600560008473ffffffffffffffffffffffffffffffffffffffff1673ffffffffffffffffffffffffffffffffffffffff16815260200190815260200160002060008373ffffffffffffffffffffffffffffffffffffffff1673ffffffffffffffffffffffffffffffffffffffff16815260200190815260200160002060009054906101000a900460ff16905092915050565b610eca6110a0565b73ffffffffffffffffffffffffffffffffffffffff16610ee8610c06565b73ffffffffffffffffffffffffffffffffffffffff1614610f3e576040517f08c379a0000000000000000000000000000000000000000000000000000000008152600401610f3590613049565b60405180910390fd5b600073ffffffffffffffffffffffffffffffffffffffff168173ffffffffffffffffffffffffffffffffffffffff161415610fae576040517f08c379a0000000000000000000000000000000000000000000000000000000008152600401610fa590612ea9565b60405180910390fd5b610fb78161155c565b50565b60007f780e9d63000000000000000000000000000000000000000000000000000000007bffffffffffffffffffffffffffffffffffffffffffffffffffffffff1916827bffffffffffffffffffffffffffffffffffffffffffffffffffffffff1916148061102d575061102c8261193d565b5b9050919050565b60008073ffffffffffffffffffffffffffffffffffffffff166002600084815260200190815260200160002060009054906101000a900473ffffffffffffffffffffffffffffffffffffffff1673ffffffffffffffffffffffffffffffffffffffff1614159050919050565b600033905090565b816004600083815260200190815260200160002060006101000a81548173ffffffffffffffffffffffffffffffffffffffff021916908373ffffffffffffffffffffffffffffffffffffffff160217905550808273ffffffffffffffffffffffffffffffffffffffff1661111b83610923565b73ffffffffffffffffffffffffffffffffffffffff167f8c5be1e5ebec7d5bd14f71427d1e84f3dd0314c0f7b2291e5b200ac8c7c3b92560405160405180910390a45050565b600061116c82611034565b6111ab576040517f08c379a00000000000000000000000000000000000000000000000000000000081526004016111a290612f49565b60405180910390fd5b60006111b683610923565b90508073ffffffffffffffffffffffffffffffffffffffff168473ffffffffffffffffffffffffffffffffffffffff1614806111f857506111f78185610e2e565b5b8061123657508373ffffffffffffffffffffffffffffffffffffffff1661121e846104ee565b73ffffffffffffffffffffffffffffffffffffffff16145b91505092915050565b8273ffffffffffffffffffffffffffffffffffffffff1661125f82610923565b73ffffffffffffffffffffffffffffffffffffffff16146112b5576040517f08c379a00000000000000000000000000000000000000000000000000000000081526004016112ac90612ec9565b60405180910390fd5b600073ffffffffffffffffffffffffffffffffffffffff168273ffffffffffffffffffffffffffffffffffffffff161415611325576040517f08c379a000000000000000000000000000000000000000000000000000000000815260040161131c90612f09565b60405180910390fd5b611330838383611a1f565b61133b6000826110a8565b6001600360008573ffffffffffffffffffffffffffffffffffffffff1673ffffffffffffffffffffffffffffffffffffffff168152602001908152602001600020600082825461138b9190613275565b925050819055506001600360008473ffffffffffffffffffffffffffffffffffffffff1673ffffffffffffffffffffffffffffffffffffffff16815260200190815260200160002060008282546113e291906131ee565b92505081905550816002600083815260200190815260200160002060006101000a81548173ffffffffffffffffffffffffffffffffffffffff021916908373ffffffffffffffffffffffffffffffffffffffff160217905550808273ffffffffffffffffffffffffffffffffffffffff168473ffffffffffffffffffffffffffffffffffffffff167fddf252ad1be2c89b69c2b068fc378daa952ba7f163c4a11628f55a4df523b3ef60405160405180910390a46114a1838383611a2f565b505050565b600081600001549050919050565b6001816000016000828254019250508190555050565b6114e4828260405180602001604052806000815250611a34565b5050565b6114f182611034565b611530576040517f08c379a000000000000000000000000000000000000000000000000000000000815260040161152790612fc9565b60405180910390fd5b80600a60008481526020019081526020016000209080519060200190611557929190612589565b505050565b6000600b60009054906101000a900473ffffffffffffffffffffffffffffffffffffffff16905081600b60006101000a81548173ffffffffffffffffffffffffffffffffffffffff021916908373ffffffffffffffffffffffffffffffffffffffff1602179055508173ffffffffffffffffffffffffffffffffffffffff168173ffffffffffffffffffffffffffffffffffffffff167f8be0079c531659141344cd1fd0a4f28419497f9722a3daafe3b4186f6b6457e060405160405180910390a35050565b8173ffffffffffffffffffffffffffffffffffffffff168373ffffffffffffffffffffffffffffffffffffffff161415611691576040517f08c379a000000000000000000000000000000000000000000000000000000000815260040161168890612f29565b60405180910390fd5b80600560008573ffffffffffffffffffffffffffffffffffffffff1673ffffffffffffffffffffffffffffffffffffffff16815260200190815260200160002060008473ffffffffffffffffffffffffffffffffffffffff1673ffffffffffffffffffffffffffffffffffffffff16815260200190815260200160002060006101000a81548160ff0219169083151502179055508173ffffffffffffffffffffffffffffffffffffffff168373ffffffffffffffffffffffffffffffffffffffff167f17307eab39ab6107e8899845ad3d59bd9653f200f220920489ca2b5937696c31836040516117829190612e11565b60405180910390a3505050565b61179a84848461123f565b6117a684848484611a8f565b6117e5576040517f08c379a00000000000000000000000000000000000000000000000000000000081526004016117dc90612e89565b60405180910390fd5b50505050565b60606117f682611034565b611835576040517f08c379a000000000000000000000000000000000000000000000000000000000815260040161182c90613009565b60405180910390fd5b6000600a6000848152602001908152602001600020805461185590613384565b80601f016020809104026020016040519081016040528092919081815260200182805461188190613384565b80156118ce5780601f106118a3576101008083540402835291602001916118ce565b820191906000526020600020905b8154815290600101906020018083116118b157829003601f168201915b5050505050905060006118df611c26565b90506000815114156118f5578192505050611938565b60008251111561192a578082604051602001611912929190612d86565b60405160208183030381529060405292505050611938565b61193384611c3d565b925050505b919050565b60007f80ac58cd000000000000000000000000000000000000000000000000000000007bffffffffffffffffffffffffffffffffffffffffffffffffffffffff1916827bffffffffffffffffffffffffffffffffffffffffffffffffffffffff19161480611a0857507f5b5e139f000000000000000000000000000000000000000000000000000000007bffffffffffffffffffffffffffffffffffffffffffffffffffffffff1916827bffffffffffffffffffffffffffffffffffffffffffffffffffffffff1916145b80611a185750611a1782611ce4565b5b9050919050565b611a2a838383611d4e565b505050565b505050565b611a3e8383611e62565b611a4b6000848484611a8f565b611a8a576040517f08c379a0000000000000000000000000000000000000000000000000000000008152600401611a8190612e89565b60405180910390fd5b505050565b6000611ab08473ffffffffffffffffffffffffffffffffffffffff1661203c565b15611c19578373ffffffffffffffffffffffffffffffffffffffff1663150b7a02611ad96110a0565b8786866040518563ffffffff1660e01b8152600401611afb9493929190612dc5565b602060405180830381600087803b158015611b1557600080fd5b505af1925050508015611b4657506040513d601f19601f82011682018060405250810190611b439190612935565b60015b611bc9573d8060008114611b76576040519150601f19603f3d011682016040523d82523d6000602084013e611b7b565b606091505b50600081511415611bc1576040517f08c379a0000000000000000000000000000000000000000000000000000000008152600401611bb890612e89565b60405180910390fd5b805181602001fd5b63150b7a0260e01b7bffffffffffffffffffffffffffffffffffffffffffffffffffffffff1916817bffffffffffffffffffffffffffffffffffffffffffffffffffffffff191614915050611c1e565b600190505b949350505050565b606060405180602001604052806000815250905090565b6060611c4882611034565b611c87576040517f08c379a0000000000000000000000000000000000000000000000000000000008152600401611c7e90613069565b60405180910390fd5b6000611c91611c26565b90506000815111611cb15760405180602001604052806000815250611cdc565b80611cbb8461205f565b604051602001611ccc929190612d86565b6040516020818303038152906040525b915050919050565b60007f01ffc9a7000000000000000000000000000000000000000000000000000000007bffffffffffffffffffffffffffffffffffffffffffffffffffffffff1916827bffffffffffffffffffffffffffffffffffffffffffffffffffffffff1916149050919050565b611d5983838361220c565b600073ffffffffffffffffffffffffffffffffffffffff168373ffffffffffffffffffffffffffffffffffffffff161415611d9c57611d9781612211565b611ddb565b8173ffffffffffffffffffffffffffffffffffffffff168373ffffffffffffffffffffffffffffffffffffffff1614611dda57611dd9838261225a565b5b5b600073ffffffffffffffffffffffffffffffffffffffff168273ffffffffffffffffffffffffffffffffffffffff161415611e1e57611e19816123c7565b611e5d565b8273ffffffffffffffffffffffffffffffffffffffff168273ffffffffffffffffffffffffffffffffffffffff1614611e5c57611e5b828261250a565b5b5b505050565b600073ffffffffffffffffffffffffffffffffffffffff168273ffffffffffffffffffffffffffffffffffffffff161415611ed2576040517f08c379a0000000000000000000000000000000000000000000000000000000008152600401611ec990612fe9565b60405180910390fd5b611edb81611034565b15611f1b576040517f08c379a0000000000000000000000000000000000000000000000000000000008152600401611f1290612ee9565b60405180910390fd5b611f2760008383611a1f565b6001600360008473ffffffffffffffffffffffffffffffffffffffff1673ffffffffffffffffffffffffffffffffffffffff1681526020019081526020016000206000828254611f7791906131ee565b92505081905550816002600083815260200190815260200160002060006101000a81548173ffffffffffffffffffffffffffffffffffffffff021916908373ffffffffffffffffffffffffffffffffffffffff160217905550808273ffffffffffffffffffffffffffffffffffffffff16600073ffffffffffffffffffffffffffffffffffffffff167fddf252ad1be2c89b69c2b068fc378daa952ba7f163c4a11628f55a4df523b3ef60405160405180910390a461203860008383611a2f565b5050565b6000808273ffffffffffffffffffffffffffffffffffffffff163b119050919050565b606060008214156120a7576040518060400160405280600181526020017f30000000000000000000000000000000000000000000000000000000000000008152509050612207565b600082905060005b600082146120d95780806120c2906133e7565b915050600a826120d29190613244565b91506120af565b60008167ffffffffffffffff81111561211b577f4e487b7100000000000000000000000000000000000000000000000000000000600052604160045260246000fd5b6040519080825280601f01601f19166020018201604052801561214d5781602001600182028036833780820191505090505b5090505b60008514612200576001826121669190613275565b9150600a856121759190613430565b603061218191906131ee565b60f81b8183815181106121bd577f4e487b7100000000000000000000000000000000000000000000000000000000600052603260045260246000fd5b60200101907effffffffffffffffffffffffffffffffffffffffffffffffffffffffffffff1916908160001a905350600a856121f99190613244565b9450612151565b8093505050505b919050565b505050565b6008805490506009600083815260200190815260200160002081905550600881908060018154018082558091505060019003906000526020600020016000909190919091505550565b6000600161226784610ac6565b6122719190613275565b9050600060076000848152602001908152602001600020549050818114612356576000600660008673ffffffffffffffffffffffffffffffffffffffff1673ffffffffffffffffffffffffffffffffffffffff168152602001908152602001600020600084815260200190815260200160002054905080600660008773ffffffffffffffffffffffffffffffffffffffff1673ffffffffffffffffffffffffffffffffffffffff168152602001908152602001600020600084815260200190815260200160002081905550816007600083815260200190815260200160002081905550505b6007600084815260200190815260200160002060009055600660008573ffffffffffffffffffffffffffffffffffffffff1673ffffffffffffffffffffffffffffffffffffffff16815260200190815260200160002060008381526020019081526020016000206000905550505050565b600060016008805490506123db9190613275565b9050600060096000848152602001908152602001600020549050600060088381548110612431577f4e487b7100000000000000000000000000000000000000000000000000000000600052603260045260246000fd5b906000526020600020015490508060088381548110612479577f4e487b7100000000000000000000000000000000000000000000000000000000600052603260045260246000fd5b9060005260206000200181905550816009600083815260200190815260200160002081905550600960008581526020019081526020016000206000905560088054806124ee577f4e487b7100000000000000000000000000000000000000000000000000000000600052603160045260246000fd5b6001900381819060005260206000200160009055905550505050565b600061251583610ac6565b905081600660008573ffffffffffffffffffffffffffffffffffffffff1673ffffffffffffffffffffffffffffffffffffffff168152602001908152602001600020600083815260200190815260200160002081905550806007600084815260200190815260200160002081905550505050565b82805461259590613384565b90600052602060002090601f0160209004810192826125b757600085556125fe565b82601f106125d057805160ff19168380011785556125fe565b828001600101855582156125fe579182015b828111156125fd5782518255916020019190600101906125e2565b5b50905061260b919061260f565b5090565b5b80821115612628576000816000905550600101612610565b5090565b600061263f61263a84613149565b613124565b90508281526020810184848401111561265757600080fd5b612662848285613342565b509392505050565b600061267d6126788461317a565b613124565b90508281526020810184848401111561269557600080fd5b6126a0848285613342565b509392505050565b6000813590506126b781613b2e565b92915050565b6000813590506126cc81613b45565b92915050565b6000813590506126e181613b5c565b92915050565b6000815190506126f681613b5c565b92915050565b600082601f83011261270d57600080fd5b813561271d84826020860161262c565b91505092915050565b600082601f83011261273757600080fd5b813561274784826020860161266a565b91505092915050565b60008135905061275f81613b73565b92915050565b60006020828403121561277757600080fd5b6000612785848285016126a8565b91505092915050565b600080604083850312156127a157600080fd5b60006127af858286016126a8565b92505060206127c0858286016126a8565b9150509250929050565b6000806000606084860312156127df57600080fd5b60006127ed868287016126a8565b93505060206127fe868287016126a8565b925050604061280f86828701612750565b9150509250925092565b6000806000806080858703121561282f57600080fd5b600061283d878288016126a8565b945050602061284e878288016126a8565b935050604061285f87828801612750565b925050606085013567ffffffffffffffff81111561287c57600080fd5b612888878288016126fc565b91505092959194509250565b600080604083850312156128a757600080fd5b60006128b5858286016126a8565b92505060206128c6858286016126bd565b9150509250929050565b600080604083850312156128e357600080fd5b60006128f1858286016126a8565b925050602061290285828601612750565b9150509250929050565b60006020828403121561291e57600080fd5b600061292c848285016126d2565b91505092915050565b60006020828403121561294757600080fd5b6000612955848285016126e7565b91505092915050565b60006020828403121561297057600080fd5b600082013567ffffffffffffffff81111561298a57600080fd5b61299684828501612726565b91505092915050565b6000602082840312156129b157600080fd5b60006129bf84828501612750565b91505092915050565b6129d1816132a9565b82525050565b6129e0816132bb565b82525050565b60006129f1826131ab565b6129fb81856131c1565b9350612a0b818560208601613351565b612a148161354c565b840191505092915050565b612a2881613330565b82525050565b6000612a39826131b6565b612a4381856131d2565b9350612a53818560208601613351565b612a5c8161354c565b840191505092915050565b6000612a72826131b6565b612a7c81856131e3565b9350612a8c818560208601613351565b80840191505092915050565b6000612aa5602b836131d2565b9150612ab08261355d565b604082019050919050565b6000612ac86032836131d2565b9150612ad3826135ac565b604082019050919050565b6000612aeb6026836131d2565b9150612af6826135fb565b604082019050919050565b6000612b0e6025836131d2565b9150612b198261364a565b604082019050919050565b6000612b31601c836131d2565b9150612b3c82613699565b602082019050919050565b6000612b546024836131d2565b9150612b5f826136c2565b604082019050919050565b6000612b776019836131d2565b9150612b8282613711565b602082019050919050565b6000612b9a602c836131d2565b9150612ba58261373a565b604082019050919050565b6000612bbd6038836131d2565b9150612bc882613789565b604082019050919050565b6000612be0602a836131d2565b9150612beb826137d8565b604082019050919050565b6000612c036029836131d2565b9150612c0e82613827565b604082019050919050565b6000612c26602e836131d2565b9150612c3182613876565b604082019050919050565b6000612c496020836131d2565b9150612c54826138c5565b602082019050919050565b6000612c6c6031836131d2565b9150612c77826138ee565b604082019050919050565b6000612c8f602c836131d2565b9150612c9a8261393d565b604082019050919050565b6000612cb26020836131d2565b9150612cbd8261398c565b602082019050919050565b6000612cd5602f836131d2565b9150612ce0826139b5565b604082019050919050565b6000612cf86021836131d2565b9150612d0382613a04565b604082019050919050565b6000612d1b600b836131d2565b9150612d2682613a53565b602082019050919050565b6000612d3e6031836131d2565b9150612d4982613a7c565b604082019050919050565b6000612d61602c836131d2565b9150612d6c82613acb565b604082019050919050565b612d8081613326565b82525050565b6000612d928285612a67565b9150612d9e8284612a67565b91508190509392505050565b6000602082019050612dbf60008301846129c8565b92915050565b6000608082019050612dda60008301876129c8565b612de760208301866129c8565b612df46040830185612d77565b8181036060830152612e0681846129e6565b905095945050505050565b6000602082019050612e2660008301846129d7565b92915050565b6000602082019050612e416000830184612a1f565b92915050565b60006020820190508181036000830152612e618184612a2e565b905092915050565b60006020820190508181036000830152612e8281612a98565b9050919050565b60006020820190508181036000830152612ea281612abb565b9050919050565b60006020820190508181036000830152612ec281612ade565b9050919050565b60006020820190508181036000830152612ee281612b01565b9050919050565b60006020820190508181036000830152612f0281612b24565b9050919050565b60006020820190508181036000830152612f2281612b47565b9050919050565b60006020820190508181036000830152612f4281612b6a565b9050919050565b60006020820190508181036000830152612f6281612b8d565b9050919050565b60006020820190508181036000830152612f8281612bb0565b9050919050565b60006020820190508181036000830152612fa281612bd3565b9050919050565b60006020820190508181036000830152612fc281612bf6565b9050919050565b60006020820190508181036000830152612fe281612c19565b9050919050565b6000602082019050818103600083015261300281612c3c565b9050919050565b6000602082019050818103600083015261302281612c5f565b9050919050565b6000602082019050818103600083015261304281612c82565b9050919050565b6000602082019050818103600083015261306281612ca5565b9050919050565b6000602082019050818103600083015261308281612cc8565b9050919050565b600060208201905081810360008301526130a281612ceb565b9050919050565b600060208201905081810360008301526130c281612d0e565b9050919050565b600060208201905081810360008301526130e281612d31565b9050919050565b6000602082019050818103600083015261310281612d54565b9050919050565b600060208201905061311e6000830184612d77565b92915050565b600061312e61313f565b905061313a82826133b6565b919050565b6000604051905090565b600067ffffffffffffffff8211156131645761316361351d565b5b61316d8261354c565b9050602081019050919050565b600067ffffffffffffffff8211156131955761319461351d565b5b61319e8261354c565b9050602081019050919050565b600081519050919050565b600081519050919050565b600082825260208201905092915050565b600082825260208201905092915050565b600081905092915050565b60006131f982613326565b915061320483613326565b9250827fffffffffffffffffffffffffffffffffffffffffffffffffffffffffffffffff0382111561323957613238613461565b5b828201905092915050565b600061324f82613326565b915061325a83613326565b92508261326a57613269613490565b5b828204905092915050565b600061328082613326565b915061328b83613326565b92508282101561329e5761329d613461565b5b828203905092915050565b60006132b482613306565b9050919050565b60008115159050919050565b60007fffffffff0000000000000000000000000000000000000000000000000000000082169050919050565b600081905061330182613b1a565b919050565b600073ffffffffffffffffffffffffffffffffffffffff82169050919050565b6000819050919050565b600061333b826132f3565b9050919050565b82818337600083830152505050565b60005b8381101561336f578082015181840152602081019050613354565b8381111561337e576000848401525b50505050565b6000600282049050600182168061339c57607f821691505b602082108114156133b0576133af6134ee565b5b50919050565b6133bf8261354c565b810181811067ffffffffffffffff821117156133de576133dd61351d565b5b80604052505050565b60006133f282613326565b91507fffffffffffffffffffffffffffffffffffffffffffffffffffffffffffffffff82141561342557613424613461565b5b600182019050919050565b600061343b82613326565b915061344683613326565b92508261345657613455613490565b5b828206905092915050565b7f4e487b7100000000000000000000000000000000000000000000000000000000600052601160045260246000fd5b7f4e487b7100000000000000000000000000000000000000000000000000000000600052601260045260246000fd5b7f4e487b7100000000000000000000000000000000000000000000000000000000600052602160045260246000fd5b7f4e487b7100000000000000000000000000000000000000000000000000000000600052602260045260246000fd5b7f4e487b7100000000000000000000000000000000000000000000000000000000600052604160045260246000fd5b6000601f19601f8301169050919050565b7f455243373231456e756d657261626c653a206f776e657220696e646578206f7560008201527f74206f6620626f756e6473000000000000000000000000000000000000000000602082015250565b7f4552433732313a207472616e7366657220746f206e6f6e20455243373231526560008201527f63656976657220696d706c656d656e7465720000000000000000000000000000602082015250565b7f4f776e61626c653a206e6577206f776e657220697320746865207a65726f206160008201527f6464726573730000000000000000000000000000000000000000000000000000602082015250565b7f4552433732313a207472616e736665722066726f6d20696e636f72726563742060008201527f6f776e6572000000000000000000000000000000000000000000000000000000602082015250565b7f4552433732313a20746f6b656e20616c7265616479206d696e74656400000000600082015250565b7f4552433732313a207472616e7366657220746f20746865207a65726f2061646460008201527f7265737300000000000000000000000000000000000000000000000000000000602082015250565b7f4552433732313a20617070726f766520746f2063616c6c657200000000000000600082015250565b7f4552433732313a206f70657261746f7220717565727920666f72206e6f6e657860008201527f697374656e7420746f6b656e0000000000000000000000000000000000000000602082015250565b7f4552433732313a20617070726f76652063616c6c6572206973206e6f74206f7760008201527f6e6572206e6f7220617070726f76656420666f7220616c6c0000000000000000602082015250565b7f4552433732313a2062616c616e636520717565727920666f7220746865207a6560008201527f726f206164647265737300000000000000000000000000000000000000000000602082015250565b7f4552433732313a206f776e657220717565727920666f72206e6f6e657869737460008201527f656e7420746f6b656e0000000000000000000000000000000000000000000000602082015250565b7f45524337323155524953746f726167653a2055524920736574206f66206e6f6e60008201527f6578697374656e7420746f6b656e000000000000000000000000000000000000602082015250565b7f4552433732313a206d696e7420746f20746865207a65726f2061646472657373600082015250565b7f45524337323155524953746f726167653a2055524920717565727920666f722060008201527f6e6f6e6578697374656e7420746f6b656e000000000000000000000000000000602082015250565b7f4552433732313a20617070726f76656420717565727920666f72206e6f6e657860008201527f697374656e7420746f6b656e0000000000000000000000000000000000000000602082015250565b7f4f776e61626c653a2063616c6c6572206973206e6f7420746865206f776e6572600082015250565b7f4552433732314d657461646174613a2055524920717565727920666f72206e6f60008201527f6e6578697374656e7420746f6b656e0000000000000000000000000000000000602082015250565b7f4552433732313a20617070726f76616c20746f2063757272656e74206f776e6560008201527f7200000000000000000000000000000000000000000000000000000000000000602082015250565b7f4d494e545f504155534544000000000000000000000000000000000000000000600082015250565b7f4552433732313a207472616e736665722063616c6c6572206973206e6f74206f60008201527f776e6572206e6f7220617070726f766564000000000000000000000000000000602082015250565b7f455243373231456e756d657261626c653a20676c6f62616c20696e646578206f60008201527f7574206f6620626f756e64730000000000000000000000000000000000000000602082015250565b60028110613b2b57613b2a6134bf565b5b50565b613b37816132a9565b8114613b4257600080fd5b50565b613b4e816132bb565b8114613b5957600080fd5b50565b613b65816132c7565b8114613b7057600080fd5b50565b613b7c81613326565b8114613b8757600080fd5b5056fea26469706673582212200c9c025121c6df145e5da230c20984fa33914f197870bbe06e4f5ca3e01820a064736f6c63430008040033",
  "linkReferences": {},
  "deployedLinkReferences": {}
}